:040000001BC0FECF54
:10000400FDCFFCCFFBCFFACFF9CFF8CFF7CFF6CFA8
:10001400F5CFF4CFF3CFF2CFF1CFF0CFEFCFEECFD8
:10002400EDCF3F065B4F666D7D077F6F0A00600171
:1000340026000000F894EE27ECBBF1E0FBBFEBBF19
:10004400E5BFF8E1F1BDE1BD8DE0A2E0BB27ED9392
:100054008A95E9F780E094E0A0E6ED930197E9F74B
:10006400E0E3F0E085919591009761F0A591B59159
:1000740005901590BF01F00105900D920197E1F7ED
:10008400FB01F0CFEFE5EDBFE4E0EEBFC0E6D1E069
:1000940000C0EFEFE1BBE7BBEFE7E4BBE2E07E2E9D
:1000A400A89AA998E42D16D0A898A99AE52D12D05B
:1000B4007A94772019F45394E2E07E2EEAE0E51571
:1000C40011F455244394EAE0E41511F44424E8CFF0
:1000D400E7CFFFCFF0E0E05AFE4FE081E8BBE2E378
:1000E400F0E0FA93EA9300C0E991F991309639F07F
:1000F4008AEF90E00197F1F7A8953197C9F7089531
:00000001FF
